{"abi":[{"type":"constructor","inputs":[{"name":"_owner","type":"address","internalType":"address"},{"name":"_name","type":"string","internalType":"string"}],"stateMutability":"payable"},{"type":"receive","stateMutability":"payable"},{"type":"function","name":"cancelSchedule","inputs":[{"name":"username","type":"string","internalType":"string"}],"outputs":[],"stateMutability":"nonpayable"},{"type":"function","name":"cancelStream","inputs":[{"name":"username","type":"string","internalType":"string"}],"outputs":[],"stateMutability":"nonpayable"},{"type":"function","name":"createSchedule","inputs":[{"name":"username","type":"string","internalType":"string"},{"name":"amount","type":"uint256","internalType":"uint256"},{"name":"token","type":"address","internalType":"address"},{"name":"oneTimePayoutDate","type":"uint40","internalType":"uint40"}],"outputs":[],"stateMutability":"payable"},{"type":"function","name":"createStream","inputs":[{"name":"username","type":"string","internalType":"string"},{"name":"amount","type":"uint256","internalType":"uint256"},{"name":"token","type":"address","internalType":"address"},{"name":"endStream","type":"uint40","internalType":"uint40"}],"outputs":[],"stateMutability":"payable"},{"type":"function","name":"editSchedule","inputs":[{"name":"username","type":"string","internalType":"string"},{"name":"amount","type":"uint256","internalType":"uint256"}],"outputs":[],"stateMutability":"nonpayable"},{"type":"function","name":"editStream","inputs":[{"name":"username","type":"string","internalType":"string"},{"name":"amount","type":"uint256","internalType":"uint256"}],"outputs":[],"stateMutability":"nonpayable"},{"type":"function","name":"emergencyWithdraw","inputs":[{"name":"tokenAddr","type":"address","internalType":"address"}],"outputs":[],"stateMutability":"nonpayable"},{"type":"function","name":"getSchedule","inputs":[{"name":"username","type":"string","internalType":"string"}],"outputs":[{"name":"","type":"tuple","internalType":"struct IOrg.Schedule","components":[{"name":"token","type":"address","internalType":"address"},{"name":"nextPayout","type":"uint40","internalType":"uint40"},{"name":"isOneTime","type":"bool","internalType":"bool"},{"name":"active","type":"bool","internalType":"bool"},{"name":"amount","type":"uint256","internalType":"uint256"}]}],"stateMutability":"view"},{"type":"function","name":"getStream","inputs":[{"name":"username","type":"string","internalType":"string"}],"outputs":[{"name":"","type":"tuple","internalType":"struct IOrg.Stream","components":[{"name":"amount","type":"uint256","internalType":"uint256"},{"name":"token","type":"address","internalType":"address"},{"name":"lastPayout","type":"uint40","internalType":"uint40"},{"name":"endStream","type":"uint40","internalType":"uint40"},{"name":"active","type":"bool","internalType":"bool"}]}],"stateMutability":"view"},{"type":"function","name":"getSubscriptionDetails","inputs":[],"outputs":[{"name":"","type":"uint256","internalType":"uint256"}],"stateMutability":"view"},{"type":"function","name":"requestSchedulePayout","inputs":[{"name":"username","type":"string","internalType":"string"}],"outputs":[],"stateMutability":"payable"},{"type":"function","name":"requestStreamPayout","inputs":[{"name":"username","type":"string","internalType":"string"}],"outputs":[],"stateMutability":"payable"},{"type":"function","name":"subscribe","inputs":[{"name":"validUntil","type":"uint40","internalType":"uint40"}],"outputs":[],"stateMutability":"nonpayable"},{"type":"function","name":"updateOrgName","inputs":[{"name":"newName","type":"string","internalType":"string"}],"outputs":[],"stateMutability":"nonpayable"},{"type":"event","name":"ETHReceived","inputs":[{"name":"name","type":"string","indexed":false,"internalType":"string"},{"name":"amount","type":"uint256","indexed":false,"internalType":"uint256"}],"anonymous":false},{"type":"event","name":"OrgNameChange","inputs":[{"name":"name","type":"string","indexed":false,"internalType":"string"}],"anonymous":false},{"type":"event","name":"PaymentScheduleActive","inputs":[{"name":"username","type":"string","indexed":true,"internalType":"string"},{"name":"token","type":"address","indexed":true,"internalType":"address"},{"name":"nextPayout","type":"uint40","indexed":true,"internalType":"uint40"},{"name":"amount","type":"uint256","indexed":false,"internalType":"uint256"}],"anonymous":false},{"type":"event","name":"PaymentScheduleCancelled","inputs":[{"name":"username","type":"string","indexed":true,"internalType":"string"}],"anonymous":false},{"type":"event","name":"PaymentStreamActive","inputs":[{"name":"username","type":"string","indexed":true,"internalType":"string"},{"name":"token","type":"address","indexed":true,"internalType":"address"},{"name":"startStream","type":"uint40","indexed":true,"internalType":"uint40"},{"name":"amount","type":"uint256","indexed":false,"internalType":"uint256"}],"anonymous":false},{"type":"event","name":"PaymentStreamCancelled","inputs":[{"name":"username","type":"string","indexed":true,"internalType":"string"}],"anonymous":false},{"type":"event","name":"Payout","inputs":[{"name":"username","type":"string","indexed":true,"internalType":"string"},{"name":"token","type":"address","indexed":true,"internalType":"address"},{"name":"amount","type":"uint256","indexed":false,"internalType":"uint256"}],"anonymous":false},{"type":"event","name":"ScheduleUpdated","inputs":[{"name":"username","type":"string","indexed":true,"internalType":"string"},{"name":"amount","type":"uint256","indexed":false,"internalType":"uint256"}],"anonymous":false},{"type":"event","name":"StreamUpdated","inputs":[{"name":"username","type":"string","indexed":true,"internalType":"string"},{"name":"amount","type":"uint256","indexed":false,"internalType":"uint256"}],"anonymous":false},{"type":"error","name":"ActivePayment","inputs":[{"name":"username","type":"string","internalType":"string"}]},{"type":"error","name":"InActivePayment","inputs":[{"name":"username","type":"string","internalType":"string"}]},{"type":"error","name":"IncompatibleUserAddress","inputs":[]},{"type":"error","name":"InsufficientBalance","inputs":[]},{"type":"error","name":"InsufficientFee","inputs":[]},{"type":"error","name":"InvalidAmount","inputs":[]},{"type":"error","name":"InvalidStreamEnd","inputs":[]},{"type":"error","name":"MaxOrganizationsReached","inputs":[]},{"type":"error","name":"NoEditAccess","inputs":[]},{"type":"error","name":"NoPayoutDue","inputs":[]},{"type":"error","name":"NotAuthorized","inputs":[]},{"type":"error","name":"TokenAlreadySupported","inputs":[]},{"type":"error","name":"TokenNotSupported","inputs":[]},{"type":"error","name":"UserNotFound","inputs":[{"name":"username","type":"string","internalType":"string"}]}],"bytecode":{"object":"0x60c060408190526001805573eeeeeeeeeeeeeeeeeeeeeeeeeeeeeeeeeeeeeeee6080523360a0526002805464ffffffffff19164264ffffffffff161790556123c1388190039081908339810160408190526100599161013b565b81610063816100cf565b50600080546001600160a01b0319166001600160a01b039290921691909117905560036100908282610298565b507f2a37945f28f8a50e577694e7c47a4afe9d48a3c0810b8b87683911278b471e10816040516100c09190610356565b60405180910390a15050610389565b6000816100f9576020600052600c6020526b5a65726f204164647265737360a01b60405260606000fd5b506001919050565b634e487b7160e01b600052604160045260246000fd5b60005b8381101561013257818101518382015260200161011a565b50506000910152565b6000806040838503121561014e57600080fd5b82516001600160a01b038116811461016557600080fd5b60208401519092506001600160401b0381111561018157600080fd5b8301601f8101851361019257600080fd5b80516001600160401b038111156101ab576101ab610101565b604051601f8201601f19908116603f011681016001600160401b03811182821017156101d9576101d9610101565b6040528181528282016020018710156101f157600080fd5b610202826020830160208601610117565b8093505050509250929050565b600181811c9082168061022357607f821691505b60208210810361024357634e487b7160e01b600052602260045260246000fd5b50919050565b601f82111561029357806000526020600020601f840160051c810160208510156102705750805b601f840160051c820191505b81811015610290576000815560010161027c565b50505b505050565b81516001600160401b038111156102b1576102b1610101565b6102c5816102bf845461020f565b84610249565b6020601f8211600181146102f957600083156102e15750848201515b600019600385901b1c1916600184901b178455610290565b600084815260208120601f198516915b828110156103295787850151825560209485019460019092019101610309565b50848210156103475786840151600019600387901b60f8161c191681555b50505050600190811b01905550565b6020815260008251806020840152610375816040850160208701610117565b601f01601f19169190910160400192915050565b60805160a051611fe26103df6000396000818161094c01528181610ccc0152818161114e0152818161152a01526115eb0152600081816104ac015281816108b4015281816110b6015261186c0152611fe26000f3fe6080604052600436106100e15760003560e01c806372840f0e1161007f578063cf3792d711610059578063cf3792d7146102f7578063d09f37031461030a578063d5f9042b1461032a578063de4af2a81461034a57600080fd5b806372840f0e14610253578063a92af8e1146102c4578063ad0527b7146102d757600080fd5b806334c73713116100bb57806334c73713146101865780634a548ad8146101a65780635e587d7a146101b95780636ff1c9bc1461023357600080fd5b80630d5de6df1461012757806318d226e81461015157806332b9f6c61461016657600080fd5b36610122577ff3f9698ce4e5e0c83ec1451945bf8c1a19a860545b8758bc5b6a6f42f9117ddb600334604051610118929190611acf565b60405180910390a1005b600080fd5b34801561013357600080fd5b5060025464ffffffffff166040519081526020015b60405180910390f35b61016461015f366004611bac565b61036a565b005b34801561017257600080fd5b50610164610181366004611bac565b610704565b34801561019257600080fd5b506101646101a1366004611bee565b610757565b6101646101b4366004611c69565b610895565b3480156101c557600080fd5b506101d96101d4366004611bac565b610bf9565b6040516101489190600060a0820190508251825260018060a01b03602084015116602083015264ffffffffff604084015116604083015264ffffffffff606084015116606083015260808301511515608083015292915050565b34801561023f57600080fd5b5061016461024e366004611cd9565b610ca4565b34801561025f57600080fd5b5061027361026e366004611bac565b610e0e565b604051610148919081516001600160a01b0316815260208083015164ffffffffff16908201526040808301511515908201526060808301511515908201526080918201519181019190915260a00190565b6101646102d2366004611bac565b610eba565b3480156102e357600080fd5b506101646102f2366004611bee565b610f15565b610164610305366004611c69565b611097565b34801561031657600080fd5b50610164610325366004611bac565b611401565b34801561033657600080fd5b50610164610345366004611bac565b611488565b34801561035657600080fd5b50610164610365366004611cfd565b61151e565b6001546001146103ae5760405162461bcd60e51b815260206004820152600a6024820152695245454e5452414e435960b01b60448201526064015b60405180910390fd5b60026001556040516000906004906103c99085908590611d18565b908152604080516020928190038301812060a08201835280546001600160a01b0381168352600160a01b810464ffffffffff1694830194909452600160c81b840460ff908116151593830193909352600160d01b9093049091161515606082018190526001909201546080820152915061045a578282604051639a44a23360e01b81526004016103a5929190611d28565b6000429050816020015164ffffffffff168164ffffffffff16101561049257604051630ac48ff560e41b815260040160405180910390fd5b6040516312617a1760e21b81526000906001600160a01b037f00000000000000000000000000000000000000000000000000000000000000001690634985e85c906104e39088908890600401611d28565b602060405180830381865afa158015610500573d6000803e3d6000fd5b505050506040513d601f19601f820116820180604052508101906105249190611d57565b6080840151604085015191925090156105795760006004878760405161054b929190611d18565b9081526040519081900360200190208054911515600160d01b0260ff60d01b1990921691909117905561065e565b602084015162278d0090600090610591908390611d8a565b90508464ffffffffff168164ffffffffff161015610614576000828760200151876105bc9190611da7565b6105c69190611dc4565b90508064ffffffffff1687608001516105df9190611dfc565b6105e99085611e13565b9350826105f7826001611d8a565b6106019190611e26565b87602001516106109190611d8a565b9150505b8060048989604051610627929190611d18565b908152604051908190036020019020805464ffffffffff92909216600160a01b0264ffffffffff60a01b1990921691909117905550505b83516001600160a01b031673eeeeeeeeeeeeeeeeeeeeeeeeeeeeeeeeeeeeeeed19016106935761068e8282611632565b6106a0565b83516106a0908383611683565b83600001516001600160a01b031686866040516106be929190611d18565b604051908190038120838252907f54f7dc9b81dbca6ba146f4620aa85a58a52aa8fd70e556240c7157e942d50a0e9060200160405180910390a350506001805550505050565b61070c611710565b6003610719828483611eb1565b507f2a37945f28f8a50e577694e7c47a4afe9d48a3c0810b8b87683911278b471e10828260405161074b929190611d28565b60405180910390a15050565b61075f611710565b806000036107805760405163162908e360e11b815260040160405180910390fd5b600060058484604051610794929190611d18565b90815260408051918290036020908101832060a08401835280548452600101546001600160a01b0381169184019190915264ffffffffff600160a01b8204811692840192909252600160c81b8104909116606083015260ff600160f01b90910416151560808201819052909150610822578383604051639a44a23360e01b81526004016103a5929190611d28565b8160058585604051610835929190611d18565b908152604051908190036020018120919091556108559085908590611d18565b604051908190038120838252907fecac18e13549a588155d22644a81c82c60bcd58a9d3afc4d2e1df115b9ec716e9060200160405180910390a250505050565b61089d611710565b6040516312617a1760e21b81526001600160a01b037f00000000000000000000000000000000000000000000000000000000000000001690634985e85c906108eb9088908890600401611d28565b602060405180830381865afa158015610908573d6000803e3d6000fd5b505050506040513d601f19601f8201168201806040525081019061092c9190611d57565b50604051630480051d60e31b81526001600160a01b0383811660048301527f0000000000000000000000000000000000000000000000000000000000000000169063240028e890602401602060405180830381865afa158015610993573d6000803e3d6000fd5b505050506040513d601f19601f820116820180604052508101906109b79190611f71565b15156000036109d957604051633dd1b30560e01b815260040160405180910390fd5b826000036109fa5760405163162908e360e11b815260040160405180910390fd5b428164ffffffffff1611610a2157604051636f46421560e01b815260040160405180910390fd5b600060058686604051610a35929190611d18565b90815260408051918290036020908101832060a08401835280548452600101546001600160a01b0381169184019190915264ffffffffff600160a01b8204811692840192909252600160c81b8104909116606083015260ff600160f01b909104161580156080830152909150610ac2578585604051632a177c9560e11b81526004016103a5929190611d28565b42610acc83611745565b6040805160a0810182528681526001600160a01b038616602082015264ffffffffff8084168284015285166060820152600160808201529051600590610b15908a908a90611d18565b9081526040805191829003602090810183208451815590840151600190910180549285015160608601516080909601511515600160f01b0260ff60f01b1964ffffffffff978816600160c81b021665ffffffffffff60c81b19928816600160a01b026001600160c81b03199096166001600160a01b03958616179590951791909116939093179290921790915591831691861690610bb6908a908a90611d18565b604051908190038120888252907f30009b65d0caf124a667fb241e08cfb7a0e90e4914af472dacebba47563da2039060200160405180910390a450505050505050565b6040805160a0810182526000808252602082018190528183018190526060820181905260808201529051600590610c339085908590611d18565b90815260408051918290036020908101832060a08401835280548452600101546001600160a01b0381169184019190915264ffffffffff600160a01b8204811692840192909252600160c81b8104909116606083015260ff600160f01b909104161515608082015290505b92915050565b604051633bb4218d60e21b81523360048201526001600160a01b0382811660248301526000917f00000000000000000000000000000000000000000000000000000000000000009091169063eed0863490604401602060405180830381865afa158015610d15573d6000803e3d6000fd5b505050506040513d601f19601f82011682018060405250810190610d399190611f71565b905080610d595760405163ea8e4eb560e01b815260040160405180910390fd5b73eeeeeeeeeeeeeeeeeeeeeeeeeeeeeeeeeeeeeeed196001600160a01b03831601610d8e5747610d893382611632565b505050565b6040516370a0823160e01b815230600482015282906000906001600160a01b038316906370a0823190602401602060405180830381865afa158015610dd7573d6000803e3d6000fd5b505050506040513d601f19601f82011682018060405250810190610dfb9190611f93565b9050610e08823383611683565b50505050565b6040805160a0810182526000808252602082018190528183018190526060820181905260808201529051600490610e489085908590611d18565b90815260408051918290036020908101832060a08401835280546001600160a01b038116855264ffffffffff600160a01b8204169285019290925260ff600160c81b83048116151593850193909352600160d01b90910490911615156060830152600101546080820152905092915050565b600154600114610ef95760405162461bcd60e51b815260206004820152600a6024820152695245454e5452414e435960b01b60448201526064016103a5565b6002600181905550610f0d82826001611766565b505060018055565b610f1d611710565b80600003610f3e5760405163162908e360e11b815260040160405180910390fd5b600060048484604051610f52929190611d18565b908152604080516020928190038301812060a08201835280546001600160a01b0381168352600160a01b810464ffffffffff1694830194909452600160c81b840460ff908116151593830193909352600160d01b90930490911615156060820181905260019092015460808201529150610fe3578383604051639a44a23360e01b81526004016103a5929190611d28565b602081015142906203f48090610ffa908390611da7565b64ffffffffff16101561102057604051632638491d60e11b815260040160405180910390fd5b8260048686604051611033929190611d18565b908152604051908190036020018120600101919091556110569086908690611d18565b604051908190038120848252907fec2f17d9940af756d85894601ad689863ca9187366c4ed56f1b8b07699b313d99060200160405180910390a25050505050565b61109f611710565b6040516312617a1760e21b81526001600160a01b037f00000000000000000000000000000000000000000000000000000000000000001690634985e85c906110ed9088908890600401611d28565b602060405180830381865afa15801561110a573d6000803e3d6000fd5b505050506040513d601f19601f8201168201806040525081019061112e9190611d57565b50604051630480051d60e31b81526001600160a01b0383811660048301527f0000000000000000000000000000000000000000000000000000000000000000169063240028e890602401602060405180830381865afa158015611195573d6000803e3d6000fd5b505050506040513d601f19601f820116820180604052508101906111b99190611f71565b15156000036111db57604051633dd1b30560e01b815260040160405180910390fd5b826000036111fc5760405163162908e360e11b815260040160405180910390fd5b600060048686604051611210929190611d18565b908152604080516020928190038301812060a08201835280546001600160a01b0381168352600160a01b810464ffffffffff1694830194909452600160c81b840460ff908116151593830193909352600160d01b9093049091161580156060830152600190920154608082015291506112a0578585604051632a177c9560e11b81526004016103a5929190611d28565b4264ffffffffff808216908416116000816112c7576112c262278d0084611d8a565b6112c9565b845b90506112d481611745565b6040805160a0810182526001600160a01b038816815264ffffffffff83166020820152831515818301526001606082015260808101899052905160049061131e908c908c90611d18565b908152604080516020928190038301812084518154948601519386015160608701516001600160a01b039283166001600160c81b031990971696909617600160a01b64ffffffffff968716021761ffff60c81b1916600160c81b9115159190910260ff60d01b191617600160d01b95151595909502949094178155608090940151600190940193909355831691908816906113bc908c908c90611d18565b6040519081900381208a8252907f2df3c79d31caeba269b4f34cc2d183c3b25aeab313f4f40a000d82fffd37daa99060200160405180910390a4505050505050505050565b611409611710565b60006004838360405161141d929190611d18565b9081526040519081900360200181208054921515600160d01b0260ff60d01b19909316929092179091556114549083908390611d18565b604051908190038120907f412f175e07cd429d70a0545ffb94cd5530da049c9584a6e4e59aad4c0882965590600090a25050565b611490611710565b61149c82826000611766565b6000600583836040516114b0929190611d18565b9081526040519081900360200181206001018054921515600160f01b0260ff60f01b19909316929092179091556114ea9083908390611d18565b604051908190038120907f3127fc537d8b31bb96bf8b17eb02548a3e32209fb4ec729d2ea10cc2c2c24d7c90600090a25050565b611526611710565b60007f00000000000000000000000000000000000000000000000000000000000000006001600160a01b031663ed99f4c66040518163ffffffff1660e01b8152600401602060405180830381865afa158015611586573d6000803e3d6000fd5b505050506040513d601f19601f820116820180604052508101906115aa9190611f93565b9050806000036115b8575050565b6002546000906115cf9064ffffffffff1684611da7565b905060006115e464ffffffffff831684611dfc565b90506116107f000000000000000000000000000000000000000000000000000000000000000082611632565b50506002805464ffffffffff191664ffffffffff939093169290921790915550565b600080600080600085875af1905080610d895760405162461bcd60e51b815260206004820152601360248201527211551217d514905394d1915497d19052531151606a1b60448201526064016103a5565b600060405163a9059cbb60e01b81526001600160a01b0384166004820152826024820152602060006044836000895af191505080601f3d11600160005114161516156116d15750823b153d17155b80610e085760405162461bcd60e51b815260206004820152600f60248201526e1514905394d1915497d19052531151608a1b60448201526064016103a5565b600054331461174357602060005260136020527231b0b63632b91034b9903737ba1037bbb732b960691b60405260606000fd5b565b60025464ffffffffff9081169082161115611763576117638161151e565b50565b60006005848460405161177a929190611d18565b90815260408051918290036020908101832060a08401835280548452600101546001600160a01b0381169184019190915264ffffffffff600160a01b8204811692840192909252600160c81b8104909116606083015260ff600160f01b90910416151560808201819052909150611808578383604051639a44a23360e01b81526004016103a5929190611d28565b42828015611834575060408201516118239062015180611d8a565b64ffffffffff168164ffffffffff16105b1561185257604051630ac48ff560e41b815260040160405180910390fd5b6040516312617a1760e21b81526000906001600160a01b037f00000000000000000000000000000000000000000000000000000000000000001690634985e85c906118a39089908990600401611d28565b602060405180830381865afa1580156118c0573d6000803e3d6000fd5b505050506040513d601f19601f820116820180604052508101906118e49190611d57565b90506000836060015164ffffffffff168364ffffffffff1610611975576000846040015185606001516119179190611da7565b855190915061192d9064ffffffffff8316611dfc565b9150600060058989604051611943929190611d18565b9081526040519081900360200190206001018054911515600160f01b0260ff60f01b19909216919091179055506119a1565b60008460400151846119879190611da7565b855190915061199d9064ffffffffff8316611dfc565b9150505b82600588886040516119b4929190611d18565b908152602001604051809103902060010160146101000a81548164ffffffffff021916908364ffffffffff16021790555073eeeeeeeeeeeeeeeeeeeeeeeeeeeeeeeeeeeeeeee6001600160a01b031684602001516001600160a01b031603611a2557611a208282611632565b611a34565b611a3484602001518383611683565b83602001516001600160a01b03168787604051611a52929190611d18565b604051908190038120838252907f54f7dc9b81dbca6ba146f4620aa85a58a52aa8fd70e556240c7157e942d50a0e9060200160405180910390a350505050505050565b600181811c90821680611aa957607f821691505b602082108103611ac957634e487b7160e01b600052602260045260246000fd5b50919050565b604081526000808454611ae181611a95565b8060408601526001821660008114611b005760018114611b1c57611b50565b60ff1983166060870152606082151560051b8701019350611b50565b87600052602060002060005b83811015611b4757815488820160600152600190910190602001611b28565b87016060019450505b5050506020929092019290925292915050565b60008083601f840112611b7557600080fd5b50813567ffffffffffffffff811115611b8d57600080fd5b602083019150836020828501011115611ba557600080fd5b9250929050565b60008060208385031215611bbf57600080fd5b823567ffffffffffffffff811115611bd657600080fd5b611be285828601611b63565b90969095509350505050565b600080600060408486031215611c0357600080fd5b833567ffffffffffffffff811115611c1a57600080fd5b611c2686828701611b63565b909790965060209590950135949350505050565b6001600160a01b038116811461176357600080fd5b803564ffffffffff81168114611c6457600080fd5b919050565b600080600080600060808688031215611c8157600080fd5b853567ffffffffffffffff811115611c9857600080fd5b611ca488828901611b63565b909650945050602086013592506040860135611cbf81611c3a565b9150611ccd60608701611c4f565b90509295509295909350565b600060208284031215611ceb57600080fd5b8135611cf681611c3a565b9392505050565b600060208284031215611d0f57600080fd5b611cf682611c4f565b8183823760009101908152919050565b60208152816020820152818360408301376000818301604090810191909152601f909201601f19160101919050565b600060208284031215611d6957600080fd5b8151611cf681611c3a565b634e487b7160e01b600052601160045260246000fd5b64ffffffffff8181168382160190811115610c9e57610c9e611d74565b64ffffffffff8281168282160390811115610c9e57610c9e611d74565b600064ffffffffff831680611de957634e487b7160e01b600052601260045260246000fd5b8064ffffffffff84160491505092915050565b8082028115828204841417610c9e57610c9e611d74565b80820180821115610c9e57610c9e611d74565b64ffffffffff8181168382160290811690818114611e4657611e46611d74565b5092915050565b634e487b7160e01b600052604160045260246000fd5b601f821115610d8957806000526020600020601f840160051c81016020851015611e8a5750805b601f840160051c820191505b81811015611eaa5760008155600101611e96565b5050505050565b67ffffffffffffffff831115611ec957611ec9611e4d565b611edd83611ed78354611a95565b83611e63565b6000601f841160018114611f115760008515611ef95750838201355b600019600387901b1c1916600186901b178355611eaa565b600083815260209020601f19861690835b82811015611f425786850135825560209485019460019092019101611f22565b5086821015611f5f5760001960f88860031b161c19848701351681555b505060018560011b0183555050505050565b600060208284031215611f8357600080fd5b81518015158114611cf657600080fd5b600060208284031215611fa557600080fd5b505191905056fea26469706673582212209d0288125f19fd67794be8c71b89b37674861778014e1783a78a1c8db6b9c97664736f6c634300081a0033","linkReferences":{}},"methodIdentifiers":{"cancelSchedule(string)":"d09f3703","cancelStream(string)":"d5f9042b","createSchedule(string,uint256,address,uint40)":"cf3792d7","createStream(string,uint256,address,uint40)":"4a548ad8","editSchedule(string,uint256)":"ad0527b7","editStream(string,uint256)":"34c73713","emergencyWithdraw(address)":"6ff1c9bc","getSchedule(string)":"72840f0e","getStream(string)":"5e587d7a","getSubscriptionDetails()":"0d5de6df","requestSchedulePayout(string)":"18d226e8","requestStreamPayout(string)":"a92af8e1","subscribe(uint40)":"de4af2a8","updateOrgName(string)":"32b9f6c6"},"id":24}