{"abi":[{"type":"constructor","inputs":[{"name":"_owner","type":"address","internalType":"address"},{"name":"_name","type":"string","internalType":"string"}],"stateMutability":"payable"},{"type":"receive","stateMutability":"payable"},{"type":"function","name":"cancelSchedule","inputs":[{"name":"username","type":"string","internalType":"string"}],"outputs":[],"stateMutability":"nonpayable"},{"type":"function","name":"cancelStream","inputs":[{"name":"username","type":"string","internalType":"string"}],"outputs":[],"stateMutability":"nonpayable"},{"type":"function","name":"createSchedule","inputs":[{"name":"username","type":"string","internalType":"string"},{"name":"amount","type":"uint256","internalType":"uint256"},{"name":"token","type":"address","internalType":"address"},{"name":"oneTimePayoutDate","type":"uint40","internalType":"uint40"}],"outputs":[],"stateMutability":"payable"},{"type":"function","name":"createStream","inputs":[{"name":"username","type":"string","internalType":"string"},{"name":"amount","type":"uint256","internalType":"uint256"},{"name":"token","type":"address","internalType":"address"},{"name":"endStream","type":"uint40","internalType":"uint40"}],"outputs":[],"stateMutability":"payable"},{"type":"function","name":"emergencyWithdraw","inputs":[{"name":"tokenAddr","type":"address","internalType":"address"}],"outputs":[],"stateMutability":"nonpayable"},{"type":"function","name":"getSubscriptionDetails","inputs":[],"outputs":[{"name":"","type":"uint256","internalType":"uint256"}],"stateMutability":"view"},{"type":"function","name":"requestSchedulePayout","inputs":[{"name":"username","type":"string","internalType":"string"}],"outputs":[],"stateMutability":"payable"},{"type":"function","name":"requestStreamPayout","inputs":[{"name":"username","type":"string","internalType":"string"}],"outputs":[],"stateMutability":"payable"},{"type":"function","name":"subscribe","inputs":[{"name":"validUntil","type":"uint40","internalType":"uint40"}],"outputs":[],"stateMutability":"nonpayable"},{"type":"function","name":"updateOrgName","inputs":[{"name":"newName","type":"string","internalType":"string"}],"outputs":[],"stateMutability":"nonpayable"},{"type":"event","name":"ETHReceived","inputs":[{"name":"name","type":"string","indexed":false,"internalType":"string"},{"name":"amount","type":"uint256","indexed":false,"internalType":"uint256"}],"anonymous":false},{"type":"event","name":"OrgNameChange","inputs":[{"name":"name","type":"string","indexed":false,"internalType":"string"}],"anonymous":false},{"type":"event","name":"PaymentScheduleActive","inputs":[{"name":"username","type":"string","indexed":true,"internalType":"string"},{"name":"token","type":"address","indexed":true,"internalType":"address"},{"name":"nextPayout","type":"uint40","indexed":true,"internalType":"uint40"},{"name":"amount","type":"uint256","indexed":false,"internalType":"uint256"}],"anonymous":false},{"type":"event","name":"PaymentScheduleCancelled","inputs":[{"name":"username","type":"string","indexed":true,"internalType":"string"}],"anonymous":false},{"type":"event","name":"PaymentStreamActive","inputs":[{"name":"username","type":"string","indexed":true,"internalType":"string"},{"name":"token","type":"address","indexed":true,"internalType":"address"},{"name":"startStream","type":"uint40","indexed":true,"internalType":"uint40"},{"name":"amount","type":"uint256","indexed":false,"internalType":"uint256"}],"anonymous":false},{"type":"event","name":"PaymentStreamCancelled","inputs":[{"name":"username","type":"string","indexed":true,"internalType":"string"}],"anonymous":false},{"type":"event","name":"Payout","inputs":[{"name":"username","type":"string","indexed":true,"internalType":"string"},{"name":"token","type":"address","indexed":true,"internalType":"address"},{"name":"amount","type":"uint256","indexed":false,"internalType":"uint256"}],"anonymous":false},{"type":"error","name":"ActivePayment","inputs":[{"name":"username","type":"string","internalType":"string"}]},{"type":"error","name":"InActivePayment","inputs":[{"name":"username","type":"string","internalType":"string"}]},{"type":"error","name":"IncompatibleUserAddress","inputs":[]},{"type":"error","name":"InsufficientBalance","inputs":[]},{"type":"error","name":"InsufficientFee","inputs":[]},{"type":"error","name":"InvalidAmount","inputs":[]},{"type":"error","name":"InvalidStreamEnd","inputs":[]},{"type":"error","name":"MaxOrganizationsReached","inputs":[]},{"type":"error","name":"NoPayoutDue","inputs":[]},{"type":"error","name":"NotAuthorized","inputs":[]},{"type":"error","name":"TokenAlreadySupported","inputs":[]},{"type":"error","name":"TokenNotSupported","inputs":[]},{"type":"error","name":"UserNotFound","inputs":[{"name":"username","type":"string","internalType":"string"}]}],"bytecode":{"object":"0x60c060408190526001805573eeeeeeeeeeeeeeeeeeeeeeeeeeeeeeeeeeeeeeee6080523360a0526002805464ffffffffff19164264ffffffffff16179055612041388190039081908339810160408190526100599161013b565b81610063816100cf565b50600080546001600160a01b0319166001600160a01b039290921691909117905560036100908282610298565b507f2a37945f28f8a50e577694e7c47a4afe9d48a3c0810b8b87683911278b471e10816040516100c09190610356565b60405180910390a15050610389565b6000816100f9576020600052600c6020526b5a65726f204164647265737360a01b60405260606000fd5b506001919050565b634e487b7160e01b600052604160045260246000fd5b60005b8381101561013257818101518382015260200161011a565b50506000910152565b6000806040838503121561014e57600080fd5b82516001600160a01b038116811461016557600080fd5b60208401519092506001600160401b0381111561018157600080fd5b8301601f8101851361019257600080fd5b80516001600160401b038111156101ab576101ab610101565b604051601f8201601f19908116603f011681016001600160401b03811182821017156101d9576101d9610101565b6040528181528282016020018710156101f157600080fd5b610202826020830160208601610117565b8093505050509250929050565b600181811c9082168061022357607f821691505b60208210810361024357634e487b7160e01b600052602260045260246000fd5b50919050565b601f82111561029357806000526020600020601f840160051c810160208510156102705750805b601f840160051c820191505b81811015610290576000815560010161027c565b50505b505050565b81516001600160401b038111156102b1576102b1610101565b6102c5816102bf845461020f565b84610249565b6020601f8211600181146102f957600083156102e15750848201515b600019600385901b1c1916600184901b178455610290565b600084815260208120601f198516915b828110156103295787850151825560209485019460019092019101610309565b50848210156103475786840151600019600387901b60f8161c191681555b50505050600190811b01905550565b6020815260008251806020840152610375816040850160208701610117565b601f01601f19169190910160400192915050565b60805160a051611c5b6103e6600039600081816106960152818161096b01528181610bbf015281816111cd015261128e015260008181610334015281816105fe01528181610b2701528181610f77015261150f0152611c5b6000f3fe6080604052600436106100955760003560e01c8063a92af8e111610059578063a92af8e11461016c578063cf3792d71461017f578063d09f370314610192578063d5f9042b146101b2578063de4af2a8146101d257600080fd5b80630d5de6df146100db57806318d226e81461010457806332b9f6c6146101195780634a548ad8146101395780636ff1c9bc1461014c57600080fd5b366100d6577ff3f9698ce4e5e0c83ec1451945bf8c1a19a860545b8758bc5b6a6f42f9117ddb6003346040516100cc929190611772565b60405180910390a1005b600080fd5b3480156100e757600080fd5b5060025464ffffffffff1660405190815260200160405180910390f35b61011761011236600461184f565b6101f2565b005b34801561012557600080fd5b5061011761013436600461184f565b61058c565b6101176101473660046118c0565b6105df565b34801561015857600080fd5b50610117610167366004611930565b610943565b61011761017a36600461184f565b610aad565b61011761018d3660046118c0565b610b08565b34801561019e57600080fd5b506101176101ad36600461184f565b610e72565b3480156101be57600080fd5b506101176101cd36600461184f565b61112b565b3480156101de57600080fd5b506101176101ed366004611954565b6111c1565b6001546001146102365760405162461bcd60e51b815260206004820152600a6024820152695245454e5452414e435960b01b60448201526064015b60405180910390fd5b6002600155604051600090600490610251908590859061196f565b908152604080516020928190038301812060a08201835280546001600160a01b0381168352600160a01b810464ffffffffff1694830194909452600160c81b840460ff908116151593830193909352600160d01b909304909116151560608201819052600190920154608082015291506102e2578282604051639a44a23360e01b815260040161022d92919061197f565b6000429050816020015164ffffffffff168164ffffffffff16101561031a57604051630ac48ff560e41b815260040160405180910390fd5b6040516312617a1760e21b81526000906001600160a01b037f00000000000000000000000000000000000000000000000000000000000000001690634985e85c9061036b908890889060040161197f565b602060405180830381865afa158015610388573d6000803e3d6000fd5b505050506040513d601f19601f820116820180604052508101906103ac91906119ae565b608084015160408501519192509015610401576000600487876040516103d392919061196f565b9081526040519081900360200190208054911515600160d01b0260ff60d01b199092169190911790556104e6565b602084015162278d00906000906104199083906119e1565b90508464ffffffffff168164ffffffffff16101561049c576000828760200151876104449190611a04565b61044e9190611a37565b90508064ffffffffff1687608001516104679190611a61565b6104719085611a78565b93508261047f8260016119e1565b6104899190611a8b565b876020015161049891906119e1565b9150505b80600489896040516104af92919061196f565b908152604051908190036020019020805464ffffffffff92909216600160a01b0264ffffffffff60a01b1990921691909117905550505b83516001600160a01b031673eeeeeeeeeeeeeeeeeeeeeeeeeeeeeeeeeeeeeeed190161051b5761051682826112d5565b610528565b8351610528908383611326565b83600001516001600160a01b0316868660405161054692919061196f565b604051908190038120838252907f54f7dc9b81dbca6ba146f4620aa85a58a52aa8fd70e556240c7157e942d50a0e9060200160405180910390a350506001805550505050565b6105946113b3565b60036105a1828483611b16565b507f2a37945f28f8a50e577694e7c47a4afe9d48a3c0810b8b87683911278b471e1082826040516105d392919061197f565b60405180910390a15050565b6105e76113b3565b6040516312617a1760e21b81526001600160a01b037f00000000000000000000000000000000000000000000000000000000000000001690634985e85c90610635908890889060040161197f565b602060405180830381865afa158015610652573d6000803e3d6000fd5b505050506040513d601f19601f8201168201806040525081019061067691906119ae565b50604051630480051d60e31b81526001600160a01b0383811660048301527f0000000000000000000000000000000000000000000000000000000000000000169063240028e890602401602060405180830381865afa1580156106dd573d6000803e3d6000fd5b505050506040513d601f19601f820116820180604052508101906107019190611bd6565b151560000361072357604051633dd1b30560e01b815260040160405180910390fd5b826000036107445760405163162908e360e11b815260040160405180910390fd5b428164ffffffffff161161076b57604051636f46421560e01b815260040160405180910390fd5b60006005868660405161077f92919061196f565b90815260408051918290036020908101832060a08401835280548452600101546001600160a01b0381169184019190915264ffffffffff600160a01b8204811692840192909252600160c81b8104909116606083015260ff600160f01b90910416158015608083015290915061080c578585604051632a177c9560e11b815260040161022d92919061197f565b42610816836113e8565b6040805160a0810182528681526001600160a01b038616602082015264ffffffffff808416828401528516606082015260016080820152905160059061085f908a908a9061196f565b9081526040805191829003602090810183208451815590840151600190910180549285015160608601516080909601511515600160f01b0260ff60f01b1964ffffffffff978816600160c81b021665ffffffffffff60c81b19928816600160a01b026001600160c81b03199096166001600160a01b03958616179590951791909116939093179290921790915591831691861690610900908a908a9061196f565b604051908190038120888252907f30009b65d0caf124a667fb241e08cfb7a0e90e4914af472dacebba47563da2039060200160405180910390a450505050505050565b604051633bb4218d60e21b81523360048201526001600160a01b0382811660248301526000917f00000000000000000000000000000000000000000000000000000000000000009091169063eed0863490604401602060405180830381865afa1580156109b4573d6000803e3d6000fd5b505050506040513d601f19601f820116820180604052508101906109d89190611bd6565b9050806109f85760405163ea8e4eb560e01b815260040160405180910390fd5b73eeeeeeeeeeeeeeeeeeeeeeeeeeeeeeeeeeeeeeed196001600160a01b03831601610a2d5747610a2833826112d5565b505050565b6040516370a0823160e01b815230600482015282906000906001600160a01b038316906370a0823190602401602060405180830381865afa158015610a76573d6000803e3d6000fd5b505050506040513d601f19601f82011682018060405250810190610a9a9190611bf8565b9050610aa7823383611326565b50505050565b600154600114610aec5760405162461bcd60e51b815260206004820152600a6024820152695245454e5452414e435960b01b604482015260640161022d565b6002600181905550610b0082826001611409565b505060018055565b610b106113b3565b6040516312617a1760e21b81526001600160a01b037f00000000000000000000000000000000000000000000000000000000000000001690634985e85c90610b5e908890889060040161197f565b602060405180830381865afa158015610b7b573d6000803e3d6000fd5b505050506040513d601f19601f82011682018060405250810190610b9f91906119ae565b50604051630480051d60e31b81526001600160a01b0383811660048301527f0000000000000000000000000000000000000000000000000000000000000000169063240028e890602401602060405180830381865afa158015610c06573d6000803e3d6000fd5b505050506040513d601f19601f82011682018060405250810190610c2a9190611bd6565b1515600003610c4c57604051633dd1b30560e01b815260040160405180910390fd5b82600003610c6d5760405163162908e360e11b815260040160405180910390fd5b600060048686604051610c8192919061196f565b908152604080516020928190038301812060a08201835280546001600160a01b0381168352600160a01b810464ffffffffff1694830194909452600160c81b840460ff908116151593830193909352600160d01b909304909116158015606083015260019092015460808201529150610d11578585604051632a177c9560e11b815260040161022d92919061197f565b4264ffffffffff80821690841611600081610d3857610d3362278d00846119e1565b610d3a565b845b9050610d45816113e8565b6040805160a0810182526001600160a01b038816815264ffffffffff831660208201528315158183015260016060820152608081018990529051600490610d8f908c908c9061196f565b908152604080516020928190038301812084518154948601519386015160608701516001600160a01b039283166001600160c81b031990971696909617600160a01b64ffffffffff968716021761ffff60c81b1916600160c81b9115159190910260ff60d01b191617600160d01b9515159590950294909417815560809094015160019094019390935583169190881690610e2d908c908c9061196f565b6040519081900381208a8252907f2df3c79d31caeba269b4f34cc2d183c3b25aeab313f4f40a000d82fffd37daa99060200160405180910390a4505050505050505050565b610e7a6113b3565b600060048383604051610e8e92919061196f565b908152604080516020928190038301812060a08201835280546001600160a01b0381168352600160a01b810464ffffffffff1694830194909452600160c81b840460ff908116151593830193909352600160d01b90930490911615156060820181905260019092015460808201529150610f1f578282604051639a44a23360e01b815260040161022d92919061197f565b60208101514290600090610f379062278d0090611a04565b610f419083611a04565b9050600062278d0064ffffffffff1684608001518364ffffffffff16610f679190611a61565b610f719190611c11565b905060007f00000000000000000000000000000000000000000000000000000000000000006001600160a01b0316634985e85c88886040518363ffffffff1660e01b8152600401610fc392919061197f565b602060405180830381865afa158015610fe0573d6000803e3d6000fd5b505050506040513d601f19601f8201168201806040525081019061100491906119ae565b905081156110a75784516001600160a01b031673eeeeeeeeeeeeeeeeeeeeeeeeeeeeeeeeeeeeeeed19016110415761103c81836112d5565b61104e565b845161104e908284611326565b84600001516001600160a01b0316878760405161106c92919061196f565b604051908190038120848252907f54f7dc9b81dbca6ba146f4620aa85a58a52aa8fd70e556240c7157e942d50a0e9060200160405180910390a35b6000600488886040516110bb92919061196f565b9081526040519081900360200181208054921515600160d01b0260ff60d01b19909316929092179091556110f2908890889061196f565b604051908190038120907f412f175e07cd429d70a0545ffb94cd5530da049c9584a6e4e59aad4c0882965590600090a250505050505050565b6111336113b3565b61113f82826000611409565b60006005838360405161115392919061196f565b9081526040519081900360200181206001018054921515600160f01b0260ff60f01b199093169290921790915561118d908390839061196f565b604051908190038120907f3127fc537d8b31bb96bf8b17eb02548a3e32209fb4ec729d2ea10cc2c2c24d7c90600090a25050565b6111c96113b3565b60007f00000000000000000000000000000000000000000000000000000000000000006001600160a01b031663ed99f4c66040518163ffffffff1660e01b8152600401602060405180830381865afa158015611229573d6000803e3d6000fd5b505050506040513d601f19601f8201168201806040525081019061124d9190611bf8565b90508060000361125b575050565b6002546000906112729064ffffffffff1684611a04565b9050600061128764ffffffffff831684611a61565b90506112b37f0000000000000000000000000000000000000000000000000000000000000000826112d5565b50506002805464ffffffffff191664ffffffffff939093169290921790915550565b600080600080600085875af1905080610a285760405162461bcd60e51b815260206004820152601360248201527211551217d514905394d1915497d19052531151606a1b604482015260640161022d565b600060405163a9059cbb60e01b81526001600160a01b0384166004820152826024820152602060006044836000895af191505080601f3d11600160005114161516156113745750823b153d17155b80610aa75760405162461bcd60e51b815260206004820152600f60248201526e1514905394d1915497d19052531151608a1b604482015260640161022d565b60005433146113e657602060005260136020527231b0b63632b91034b9903737ba1037bbb732b960691b60405260606000fd5b565b60025464ffffffffff908116908216111561140657611406816111c1565b50565b60006005848460405161141d92919061196f565b90815260408051918290036020908101832060a08401835280548452600101546001600160a01b0381169184019190915264ffffffffff600160a01b8204811692840192909252600160c81b8104909116606083015260ff600160f01b909104161515608082018190529091506114ab578383604051639a44a23360e01b815260040161022d92919061197f565b428280156114d7575060408201516114c690620151806119e1565b64ffffffffff168164ffffffffff16105b156114f557604051630ac48ff560e41b815260040160405180910390fd5b6040516312617a1760e21b81526000906001600160a01b037f00000000000000000000000000000000000000000000000000000000000000001690634985e85c90611546908990899060040161197f565b602060405180830381865afa158015611563573d6000803e3d6000fd5b505050506040513d601f19601f8201168201806040525081019061158791906119ae565b90506000836060015164ffffffffff168364ffffffffff1610611618576000846040015185606001516115ba9190611a04565b85519091506115d09064ffffffffff8316611a61565b91506000600589896040516115e692919061196f565b9081526040519081900360200190206001018054911515600160f01b0260ff60f01b1990921691909117905550611644565b600084604001518461162a9190611a04565b85519091506116409064ffffffffff8316611a61565b9150505b826005888860405161165792919061196f565b908152602001604051809103902060010160146101000a81548164ffffffffff021916908364ffffffffff16021790555073eeeeeeeeeeeeeeeeeeeeeeeeeeeeeeeeeeeeeeee6001600160a01b031684602001516001600160a01b0316036116c8576116c382826112d5565b6116d7565b6116d784602001518383611326565b83602001516001600160a01b031687876040516116f592919061196f565b604051908190038120838252907f54f7dc9b81dbca6ba146f4620aa85a58a52aa8fd70e556240c7157e942d50a0e9060200160405180910390a350505050505050565b600181811c9082168061174c57607f821691505b60208210810361176c57634e487b7160e01b600052602260045260246000fd5b50919050565b60408152600080845461178481611738565b80604086015260018216600081146117a357600181146117bf576117f3565b60ff1983166060870152606082151560051b87010193506117f3565b87600052602060002060005b838110156117ea578154888201606001526001909101906020016117cb565b87016060019450505b5050506020929092019290925292915050565b60008083601f84011261181857600080fd5b50813567ffffffffffffffff81111561183057600080fd5b60208301915083602082850101111561184857600080fd5b9250929050565b6000806020838503121561186257600080fd5b823567ffffffffffffffff81111561187957600080fd5b61188585828601611806565b90969095509350505050565b6001600160a01b038116811461140657600080fd5b803564ffffffffff811681146118bb57600080fd5b919050565b6000806000806000608086880312156118d857600080fd5b853567ffffffffffffffff8111156118ef57600080fd5b6118fb88828901611806565b90965094505060208601359250604086013561191681611891565b9150611924606087016118a6565b90509295509295909350565b60006020828403121561194257600080fd5b813561194d81611891565b9392505050565b60006020828403121561196657600080fd5b61194d826118a6565b8183823760009101908152919050565b60208152816020820152818360408301376000818301604090810191909152601f909201601f19160101919050565b6000602082840312156119c057600080fd5b815161194d81611891565b634e487b7160e01b600052601160045260246000fd5b64ffffffffff81811683821601908111156119fe576119fe6119cb565b92915050565b64ffffffffff82811682821603908111156119fe576119fe6119cb565b634e487b7160e01b600052601260045260246000fd5b600064ffffffffff831680611a4e57611a4e611a21565b8064ffffffffff84160491505092915050565b80820281158282048414176119fe576119fe6119cb565b808201808211156119fe576119fe6119cb565b64ffffffffff8181168382160290811690818114611aab57611aab6119cb565b5092915050565b634e487b7160e01b600052604160045260246000fd5b601f821115610a2857806000526020600020601f840160051c81016020851015611aef5750805b601f840160051c820191505b81811015611b0f5760008155600101611afb565b5050505050565b67ffffffffffffffff831115611b2e57611b2e611ab2565b611b4283611b3c8354611738565b83611ac8565b6000601f841160018114611b765760008515611b5e5750838201355b600019600387901b1c1916600186901b178355611b0f565b600083815260209020601f19861690835b82811015611ba75786850135825560209485019460019092019101611b87565b5086821015611bc45760001960f88860031b161c19848701351681555b505060018560011b0183555050505050565b600060208284031215611be857600080fd5b8151801515811461194d57600080fd5b600060208284031215611c0a57600080fd5b5051919050565b600082611c2057611c20611a21565b50049056fea2646970667358221220212081ada464f64b0a7856714da3a23cf5cb0e6a31398f892f7b0907b57f8cc864736f6c634300081a0033","linkReferences":{}},"methodIdentifiers":{"cancelSchedule(string)":"d09f3703","cancelStream(string)":"d5f9042b","createSchedule(string,uint256,address,uint40)":"cf3792d7","createStream(string,uint256,address,uint40)":"4a548ad8","emergencyWithdraw(address)":"6ff1c9bc","getSubscriptionDetails()":"0d5de6df","requestSchedulePayout(string)":"18d226e8","requestStreamPayout(string)":"a92af8e1","subscribe(uint40)":"de4af2a8","updateOrgName(string)":"32b9f6c6"},"id":24}