{"abi":[{"type":"constructor","inputs":[],"stateMutability":"nonpayable"},{"type":"function","name":"getUserAddress","inputs":[{"name":"username","type":"string","internalType":"string"}],"outputs":[{"name":"","type":"address","internalType":"address"}],"stateMutability":"view"},{"type":"function","name":"updateUserAddress","inputs":[{"name":"username","type":"string","internalType":"string"},{"name":"userAddress","type":"address","internalType":"address"}],"outputs":[],"stateMutability":"nonpayable"},{"type":"event","name":"UserAddressUpdated","inputs":[{"name":"username","type":"string","indexed":true,"internalType":"string"},{"name":"newAddress","type":"address","indexed":false,"internalType":"address"}],"anonymous":false},{"type":"error","name":"ActivePayment","inputs":[{"name":"username","type":"string","internalType":"string"}]},{"type":"error","name":"InActivePayment","inputs":[{"name":"username","type":"string","internalType":"string"}]},{"type":"error","name":"IncompatibleUserAddress","inputs":[]},{"type":"error","name":"InsufficientBalance","inputs":[]},{"type":"error","name":"InsufficientFee","inputs":[]},{"type":"error","name":"InvalidAmount","inputs":[]},{"type":"error","name":"InvalidStreamEnd","inputs":[]},{"type":"error","name":"MaxOrganizationsReached","inputs":[]},{"type":"error","name":"NoEditAccess","inputs":[]},{"type":"error","name":"NoPayoutDue","inputs":[]},{"type":"error","name":"NotAuthorized","inputs":[]},{"type":"error","name":"TokenAlreadySupported","inputs":[]},{"type":"error","name":"TokenNotSupported","inputs":[]},{"type":"error","name":"UserNotFound","inputs":[{"name":"username","type":"string","internalType":"string"}]}],"bytecode":{"object":"0x6080604052348015600f57600080fd5b5033601881603d565b50600080546001600160a01b0319166001600160a01b0392909216919091179055606e565b6000816066576020600052600c6020526b5a65726f204164647265737360a01b60405260606000fd5b506001919050565b6103398061007d6000396000f3fe608060405234801561001057600080fd5b50600436106100365760003560e01c80633d02435e1461003b5780634985e85c14610050575b600080fd5b61004e61004936600461021f565b61007f565b005b61006361005e366004610282565b61013f565b6040516001600160a01b03909116815260200160405180910390f35b6100876101a1565b803b156100a7576040516383b2e7c360e01b815260040160405180910390fd5b80600184846040516100ba9291906102c4565b90815260405190819003602001812080546001600160a01b03939093166001600160a01b0319909316929092179091556100f790849084906102c4565b6040519081900381206001600160a01b0383168252907ffee0c2c0b6b1a8e04e9f31cbbfb7c74ccc403044b4096cbcccb537117005608e9060200160405180910390a2505050565b600080600184846040516101549291906102c4565b908152604051908190036020019020546001600160a01b031690508061019a578383604051638e5b831560e01b81526004016101919291906102d4565b60405180910390fd5b9392505050565b60005433146101d457602060005260136020527231b0b63632b91034b9903737ba1037bbb732b960691b60405260606000fd5b565b60008083601f8401126101e857600080fd5b50813567ffffffffffffffff81111561020057600080fd5b60208301915083602082850101111561021857600080fd5b9250929050565b60008060006040848603121561023457600080fd5b833567ffffffffffffffff81111561024b57600080fd5b610257868287016101d6565b90945092505060208401356001600160a01b038116811461027757600080fd5b809150509250925092565b6000806020838503121561029557600080fd5b823567ffffffffffffffff8111156102ac57600080fd5b6102b8858286016101d6565b90969095509350505050565b8183823760009101908152919050565b60208152816020820152818360408301376000818301604090810191909152601f909201601f1916010191905056fea2646970667358221220071d2d3ff1f83facbd69714fcfa681da8bdb19dd3386834bb706b9479327a87364736f6c634300081a0033","linkReferences":{}},"methodIdentifiers":{"getUserAddress(string)":"4985e85c","updateUserAddress(string,address)":"3d02435e"},"id":23}